{
  "contractName": "VotingContract",
  "abi": [
    {
      "inputs": [],
      "stateMutability": "nonpayable",
      "type": "constructor"
    },
    {
      "anonymous": false,
      "inputs": [
        {
          "indexed": true,
          "internalType": "string",
          "name": "abstain",
          "type": "string"
        }
      ],
      "name": "Abstain",
      "type": "event"
    },
    {
      "anonymous": false,
      "inputs": [
        {
          "indexed": true,
          "internalType": "string",
          "name": "reject",
          "type": "string"
        }
      ],
      "name": "Reject",
      "type": "event"
    },
    {
      "anonymous": false,
      "inputs": [
        {
          "indexed": true,
          "internalType": "uint256",
          "name": "candidateId",
          "type": "uint256"
        }
      ],
      "name": "Vote",
      "type": "event"
    },
    {
      "inputs": [
        {
          "internalType": "uint256",
          "name": "",
          "type": "uint256"
        }
      ],
      "name": "candidateDetails",
      "outputs": [
        {
          "internalType": "uint256",
          "name": "candidateId",
          "type": "uint256"
        },
        {
          "internalType": "string",
          "name": "name",
          "type": "string"
        },
        {
          "internalType": "string",
          "name": "details",
          "type": "string"
        },
        {
          "internalType": "uint256",
          "name": "voteCount",
          "type": "uint256"
        }
      ],
      "stateMutability": "view",
      "type": "function",
      "constant": true
    },
    {
      "inputs": [
        {
          "internalType": "address",
          "name": "",
          "type": "address"
        }
      ],
      "name": "nonces",
      "outputs": [
        {
          "internalType": "uint256",
          "name": "",
          "type": "uint256"
        }
      ],
      "stateMutability": "view",
      "type": "function",
      "constant": true
    },
    {
      "inputs": [
        {
          "internalType": "address",
          "name": "",
          "type": "address"
        }
      ],
      "name": "voterAddresses",
      "outputs": [
        {
          "internalType": "string",
          "name": "name",
          "type": "string"
        },
        {
          "internalType": "string",
          "name": "voterId",
          "type": "string"
        },
        {
          "internalType": "address",
          "name": "voterAddress",
          "type": "address"
        },
        {
          "internalType": "bool",
          "name": "hasVoted",
          "type": "bool"
        }
      ],
      "stateMutability": "view",
      "type": "function",
      "constant": true
    },
    {
      "inputs": [
        {
          "internalType": "string",
          "name": "_name",
          "type": "string"
        },
        {
          "internalType": "string",
          "name": "_details",
          "type": "string"
        }
      ],
      "name": "addCandidate",
      "outputs": [],
      "stateMutability": "nonpayable",
      "type": "function"
    },
    {
      "inputs": [
        {
          "internalType": "string",
          "name": "_name",
          "type": "string"
        },
        {
          "internalType": "string",
          "name": "_voterId",
          "type": "string"
        },
        {
          "internalType": "address",
          "name": "_voterAddress",
          "type": "address"
        }
      ],
      "name": "manualAddVoter",
      "outputs": [],
      "stateMutability": "nonpayable",
      "type": "function"
    },
    {
      "inputs": [
        {
          "internalType": "uint256",
          "name": "_candidateId",
          "type": "uint256"
        }
      ],
      "name": "vote",
      "outputs": [],
      "stateMutability": "nonpayable",
      "type": "function"
    },
    {
      "inputs": [],
      "name": "abstain",
      "outputs": [],
      "stateMutability": "nonpayable",
      "type": "function"
    },
    {
      "inputs": [],
      "name": "reject",
      "outputs": [],
      "stateMutability": "nonpayable",
      "type": "function"
    },
    {
      "inputs": [],
      "name": "startElection",
      "outputs": [],
      "stateMutability": "nonpayable",
      "type": "function"
    },
    {
      "inputs": [],
      "name": "endElection",
      "outputs": [],
      "stateMutability": "nonpayable",
      "type": "function"
    },
    {
      "inputs": [],
      "name": "electionStatus",
      "outputs": [
        {
          "internalType": "bool",
          "name": "",
          "type": "bool"
        }
      ],
      "stateMutability": "view",
      "type": "function",
      "constant": true
    },
    {
      "inputs": [],
      "name": "electionResults",
      "outputs": [
        {
          "internalType": "uint256",
          "name": "",
          "type": "uint256"
        }
      ],
      "stateMutability": "nonpayable",
      "type": "function"
    },
    {
      "inputs": [],
      "name": "viewWinner",
      "outputs": [
        {
          "internalType": "string",
          "name": "",
          "type": "string"
        }
      ],
      "stateMutability": "nonpayable",
      "type": "function"
    },
    {
      "inputs": [],
      "name": "getVoterCount",
      "outputs": [
        {
          "internalType": "uint256",
          "name": "",
          "type": "uint256"
        }
      ],
      "stateMutability": "view",
      "type": "function",
      "constant": true
    },
    {
      "inputs": [],
      "name": "getOwner",
      "outputs": [
        {
          "internalType": "address",
          "name": "",
          "type": "address"
        }
      ],
      "stateMutability": "view",
      "type": "function",
      "constant": true
    },
    {
      "inputs": [],
      "name": "getCandidateCount",
      "outputs": [
        {
          "internalType": "uint256",
          "name": "",
          "type": "uint256"
        }
      ],
      "stateMutability": "view",
      "type": "function",
      "constant": true
    },
    {
      "inputs": [],
      "name": "totalVotesCasted",
      "outputs": [
        {
          "internalType": "uint256",
          "name": "",
          "type": "uint256"
        }
      ],
      "stateMutability": "view",
      "type": "function",
      "constant": true
    },
    {
      "inputs": [],
      "name": "totalAbstain",
      "outputs": [
        {
          "internalType": "uint256",
          "name": "",
          "type": "uint256"
        }
      ],
      "stateMutability": "view",
      "type": "function",
      "constant": true
    },
    {
      "inputs": [],
      "name": "totalReject",
      "outputs": [
        {
          "internalType": "uint256",
          "name": "",
          "type": "uint256"
        }
      ],
      "stateMutability": "view",
      "type": "function",
      "constant": true
    }
  ],
  "bytecode": "0x6080604052600060015560006002556000600555600060065560006007556040518060400160405280601381526020017f43616e646964617465732072656a656374656400000000000000000000000000815250600890805190602001906200006a9291906200018c565b506040518060800160405280605281526020016200229b60529139805190602001206040518060400160405280600581526020017f51756f7465000000000000000000000000000000000000000000000000000000815250805190602001206040518060400160405280600181526020017f3100000000000000000000000000000000000000000000000000000000000000815250805190602001206004306040516020016200011f9594939291906200026f565b60405160208183030381529060405280519060200120600a553480156200014557600080fd5b50336000806101000a81548173ffffffffffffffffffffffffffffffffffffffff021916908373ffffffffffffffffffffffffffffffffffffffff16021790555062000390565b8280546200019a906200032b565b90600052602060002090601f016020900481019282620001be57600085556200020a565b82601f10620001d957805160ff19168380011785556200020a565b828001600101855582156200020a579182015b8281111562000209578251825591602001919060010190620001ec565b5b5090506200021991906200021d565b5090565b5b80821115620002385760008160009055506001016200021e565b5090565b6200024781620002cc565b82525050565b6200025881620002e0565b82525050565b620002698162000317565b82525050565b600060a0820190506200028660008301886200024d565b6200029560208301876200024d565b620002a460408301866200024d565b620002b360608301856200025e565b620002c260808301846200023c565b9695505050505050565b6000620002d982620002ea565b9050919050565b6000819050919050565b600073ffffffffffffffffffffffffffffffffffffffff82169050919050565b600060ff82169050919050565b600062000324826200030a565b9050919050565b600060028204905060018216806200034457607f821691505b602082108114156200035b576200035a62000361565b5b50919050565b7f4e487b7100000000000000000000000000000000000000000000000000000000600052602260045260246000fd5b611efb80620003a06000396000f3fe608060405234801561001057600080fd5b50600436106101215760003560e01c80634dc415de116100ad5780637c99279a116100715780637c99279a146102a05780637ecebe00146102be578063893d20e8146102ee578063eaef03491461030c578063fe6b946e1461032a57610121565b80634dc415de1461024557806359f784681461024f5780635e98e4c7146102595780636247e5321461026357806362d73eb81461029657610121565b806326541b56116100f457806326541b56146101b157806330a56347146101cd578063392e2403146101eb5780633b98d75a14610209578063463b62751461022757610121565b80630121b93f14610126578063037272831461014257806308670f4f1461017557806311174a2914610193575b600080fd5b610140600480360381019061013b91906117b0565b610346565b005b61015c6004803603810190610157919061169c565b6105d7565b60405161016c9493929190611a41565b60405180910390f35b61017d610744565b60405161018a9190611b14565b60405180910390f35b61019b6108c2565b6040516101a89190611b14565b60405180910390f35b6101cb60048036038101906101c691906116c5565b6108cc565b005b6101d5610a07565b6040516101e29190611b14565b60405180910390f35b6101f3610a11565b6040516102009190611a1f565b60405180910390f35b610211610b6d565b60405161021e9190611b14565b60405180910390f35b61022f610b77565b60405161023c9190611b14565b60405180910390f35b61024d610b81565b005b610257610e10565b005b610261610ebb565b005b61027d600480360381019061027891906117b0565b61114a565b60405161028d9493929190611b2f565b60405180910390f35b61029e61128a565b005b6102a8611335565b6040516102b59190611b14565b60405180910390f35b6102d860048036038101906102d3919061169c565b61133f565b6040516102e59190611b14565b60405180910390f35b6102f6611357565b60405161030391906119e9565b60405180910390f35b610314611380565b6040516103219190611a04565b60405180910390f35b610344600480360381019061033f9190611731565b611397565b005b600073ffffffffffffffffffffffffffffffffffffffff16600b60003373ffffffffffffffffffffffffffffffffffffffff1673ffffffffffffffffffffffffffffffffffffffff16815260200190815260200160002060020160009054906101000a900473ffffffffffffffffffffffffffffffffffffffff1673ffffffffffffffffffffffffffffffffffffffff161415610418576040517f08c379a000000000000000000000000000000000000000000000000000000000815260040161040f90611af4565b60405180910390fd5b60001515600b60003373ffffffffffffffffffffffffffffffffffffffff1673ffffffffffffffffffffffffffffffffffffffff16815260200190815260200160002060020160149054906101000a900460ff161515146104ae576040517f08c379a00000000000000000000000000000000000000000000000000000000081526004016104a590611ad4565b60405180910390fd5b60011515600360009054906101000a900460ff16151514610504576040517f08c379a00000000000000000000000000000000000000000000000000000000081526004016104fb90611ab4565b60405180910390fd5b6001600c6000838152602001908152602001600020600301600082825461052b9190611c0a565b925050819055506001600b60003373ffffffffffffffffffffffffffffffffffffffff1673ffffffffffffffffffffffffffffffffffffffff16815260200190815260200160002060020160146101000a81548160ff021916908315150217905550807fdcd6a5cd90707bfd61ed2fddae23e88c584cb5b78a0e9989710a59fd84c0a1f960405160405180910390a26001600560008282546105cd9190611c0a565b9250508190555050565b600b6020528060005260406000206000915090508060000180546105fa90611d4f565b80601f016020809104026020016040519081016040528092919081815260200182805461062690611d4f565b80156106735780601f1061064857610100808354040283529160200191610673565b820191906000526020600020905b81548152906001019060200180831161065657829003601f168201915b50505050509080600101805461068890611d4f565b80601f01602080910402602001604051908101604052809291908181526020018280546106b490611d4f565b80156107015780601f106106d657610100808354040283529160200191610701565b820191906000526020600020905b8154815290600101906020018083116106e457829003601f168201915b5050505050908060020160009054906101000a900473ffffffffffffffffffffffffffffffffffffffff16908060020160149054906101000a900460ff16905084565b6000801515600360009054906101000a900460ff1615151461076557600080fd5b600060026007546005546107799190611c91565b6107839190611c60565b60065411156107a1576001805461079a9190611c0a565b90506108bb565b60005b60015481101561080057600d600c600083815260200190815260200160002060030154908060018154018082558091505060019003906000526020600020016000909190919091505580806107f890611d81565b9150506107a4565b506000600190505b6001548110156108b957600d828154811061084c577f4e487b7100000000000000000000000000000000000000000000000000000000600052603260045260246000fd5b9060005260206000200154600d8281548110610891577f4e487b7100000000000000000000000000000000000000000000000000000000600052603260045260246000fd5b906000526020600020015411156108a6578091505b80806108b190611d81565b915050610808565b505b8091505090565b6000600254905090565b60008054906101000a900473ffffffffffffffffffffffffffffffffffffffff1673ffffffffffffffffffffffffffffffffffffffff163373ffffffffffffffffffffffffffffffffffffffff161461095a576040517f08c379a000000000000000000000000000000000000000000000000000000000815260040161095190611a94565b60405180910390fd5b6000604051806080016040528060015481526020018481526020018381526020016000815250905080600c600060015481526020019081526020016000206000820151816000015560208201518160010190805190602001906109be929190611567565b5060408201518160020190805190602001906109db929190611567565b506060820151816003015590505060018060008282546109fb9190611c0a565b92505081905550505050565b6000600154905090565b60606000610a1d610744565b905060018054610a2d9190611c0a565b811415610ac75760088054610a4190611d4f565b80601f0160208091040260200160405190810160405280929190818152602001828054610a6d90611d4f565b8015610aba5780601f10610a8f57610100808354040283529160200191610aba565b820191906000526020600020905b815481529060010190602001808311610a9d57829003601f168201915b5050505050915050610b6a565b600c60008281526020019081526020016000206001018054610ae890611d4f565b80601f0160208091040260200160405190810160405280929190818152602001828054610b1490611d4f565b8015610b615780601f10610b3657610100808354040283529160200191610b61565b820191906000526020600020905b815481529060010190602001808311610b4457829003601f168201915b50505050509150505b90565b6000600754905090565b6000600654905090565b600073ffffffffffffffffffffffffffffffffffffffff16600b60003373ffffffffffffffffffffffffffffffffffffffff1673ffffffffffffffffffffffffffffffffffffffff16815260200190815260200160002060020160009054906101000a900473ffffffffffffffffffffffffffffffffffffffff1673ffffffffffffffffffffffffffffffffffffffff161415610c53576040517f08c379a0000000000000000000000000000000000000000000000000000000008152600401610c4a90611af4565b60405180910390fd5b60001515600b60003373ffffffffffffffffffffffffffffffffffffffff1673ffffffffffffffffffffffffffffffffffffffff16815260200190815260200160002060020160149054906101000a900460ff16151514610ce9576040517f08c379a0000000000000000000000000000000000000000000000000000000008152600401610ce090611ad4565b60405180910390fd5b60011515600360009054906101000a900460ff16151514610d3f576040517f08c379a0000000000000000000000000000000000000000000000000000000008152600401610d3690611ab4565b60405180910390fd5b600160066000828254610d529190611c0a565b925050819055506001600b60003373ffffffffffffffffffffffffffffffffffffffff1673ffffffffffffffffffffffffffffffffffffffff16815260200190815260200160002060020160146101000a81548160ff021916908315150217905550604051610dc0906119bf565b60405180910390207f5a074a7aea2ae96d3d465d04e81f21320d03a4eb77c3f298647ff4fbdce6787d60405160405180910390a2600160056000828254610e079190611c0a565b92505081905550565b60008054906101000a900473ffffffffffffffffffffffffffffffffffffffff1673ffffffffffffffffffffffffffffffffffffffff163373ffffffffffffffffffffffffffffffffffffffff1614610e9e576040517f08c379a0000000000000000000000000000000000000000000000000000000008152600401610e9590611a94565b60405180910390fd5b6000600360006101000a81548160ff021916908315150217905550565b600073ffffffffffffffffffffffffffffffffffffffff16600b60003373ffffffffffffffffffffffffffffffffffffffff1673ffffffffffffffffffffffffffffffffffffffff16815260200190815260200160002060020160009054906101000a900473ffffffffffffffffffffffffffffffffffffffff1673ffffffffffffffffffffffffffffffffffffffff161415610f8d576040517f08c379a0000000000000000000000000000000000000000000000000000000008152600401610f8490611af4565b60405180910390fd5b60001515600b60003373ffffffffffffffffffffffffffffffffffffffff1673ffffffffffffffffffffffffffffffffffffffff16815260200190815260200160002060020160149054906101000a900460ff16151514611023576040517f08c379a000000000000000000000000000000000000000000000000000000000815260040161101a90611ad4565b60405180910390fd5b60011515600360009054906101000a900460ff16151514611079576040517f08c379a000000000000000000000000000000000000000000000000000000000815260040161107090611ab4565b60405180910390fd5b60016007600082825461108c9190611c0a565b925050819055506001600b60003373ffffffffffffffffffffffffffffffffffffffff1673ffffffffffffffffffffffffffffffffffffffff16815260200190815260200160002060020160146101000a81548160ff0219169083151502179055506040516110fa906119d4565b60405180910390207fb8e3a4804945b9518180ff263fe61444b0743bc3b100f0e2d27af662f1fae07460405160405180910390a26001600560008282546111419190611c0a565b92505081905550565b600c60205280600052604060002060009150905080600001549080600101805461117390611d4f565b80601f016020809104026020016040519081016040528092919081815260200182805461119f90611d4f565b80156111ec5780601f106111c1576101008083540402835291602001916111ec565b820191906000526020600020905b8154815290600101906020018083116111cf57829003601f168201915b50505050509080600201805461120190611d4f565b80601f016020809104026020016040519081016040528092919081815260200182805461122d90611d4f565b801561127a5780601f1061124f5761010080835404028352916020019161127a565b820191906000526020600020905b81548152906001019060200180831161125d57829003601f168201915b5050505050908060030154905084565b60008054906101000a900473ffffffffffffffffffffffffffffffffffffffff1673ffffffffffffffffffffffffffffffffffffffff163373ffffffffffffffffffffffffffffffffffffffff1614611318576040517f08c379a000000000000000000000000000000000000000000000000000000000815260040161130f90611a94565b60405180910390fd5b6001600360006101000a81548160ff021916908315150217905550565b6000600554905090565b60096020528060005260406000206000915090505481565b60008060009054906101000a900473ffffffffffffffffffffffffffffffffffffffff16905090565b6000600360009054906101000a900460ff16905090565b60008054906101000a900473ffffffffffffffffffffffffffffffffffffffff1673ffffffffffffffffffffffffffffffffffffffff163373ffffffffffffffffffffffffffffffffffffffff1614611425576040517f08c379a000000000000000000000000000000000000000000000000000000000815260040161141c90611a94565b60405180910390fd5b600060405180608001604052808581526020018481526020018373ffffffffffffffffffffffffffffffffffffffff16815260200160001515815250905080600b60008473ffffffffffffffffffffffffffffffffffffffff1673ffffffffffffffffffffffffffffffffffffffff16815260200190815260200160002060008201518160000190805190602001906114bf929190611567565b5060208201518160010190805190602001906114dc929190611567565b5060408201518160020160006101000a81548173ffffffffffffffffffffffffffffffffffffffff021916908373ffffffffffffffffffffffffffffffffffffffff16021790555060608201518160020160146101000a81548160ff02191690831515021790555090505060016002600082825461155a9190611c0a565b9250508190555050505050565b82805461157390611d4f565b90600052602060002090601f01602090048101928261159557600085556115dc565b82601f106115ae57805160ff19168380011785556115dc565b828001600101855582156115dc579182015b828111156115db5782518255916020019190600101906115c0565b5b5090506115e991906115ed565b5090565b5b808211156116065760008160009055506001016115ee565b5090565b600061161d61161884611bb3565b611b82565b90508281526020810184848401111561163557600080fd5b611640848285611d0d565b509392505050565b60008135905061165781611e97565b92915050565b600082601f83011261166e57600080fd5b813561167e84826020860161160a565b91505092915050565b60008135905061169681611eae565b92915050565b6000602082840312156116ae57600080fd5b60006116bc84828501611648565b91505092915050565b600080604083850312156116d857600080fd5b600083013567ffffffffffffffff8111156116f257600080fd5b6116fe8582860161165d565b925050602083013567ffffffffffffffff81111561171b57600080fd5b6117278582860161165d565b9150509250929050565b60008060006060848603121561174657600080fd5b600084013567ffffffffffffffff81111561176057600080fd5b61176c8682870161165d565b935050602084013567ffffffffffffffff81111561178957600080fd5b6117958682870161165d565b92505060406117a686828701611648565b9150509250925092565b6000602082840312156117c257600080fd5b60006117d084828501611687565b91505092915050565b6117e281611cc5565b82525050565b6117f181611cd7565b82525050565b600061180282611be3565b61180c8185611bee565b935061181c818560208601611d1c565b61182581611e86565b840191505092915050565b600061183d600883611bff565b91507f52656a65637465640000000000000000000000000000000000000000000000006000830152600882019050919050565b600061187d600a83611bee565b91507f6f6e6c79204f776e6572000000000000000000000000000000000000000000006000830152602082019050919050565b60006118bd600983611bff565b91507f4162737461696e656400000000000000000000000000000000000000000000006000830152600982019050919050565b60006118fd600b83611bee565b91507f6e6f7420737461727465640000000000000000000000000000000000000000006000830152602082019050919050565b600061193d601183611bee565b91507f68617320616c726561647920766f7465640000000000000000000000000000006000830152602082019050919050565b600061197d601483611bee565b91507f766f74657220646f6573206e6f742065786973740000000000000000000000006000830152602082019050919050565b6119b981611d03565b82525050565b60006119ca82611830565b9150819050919050565b60006119df826118b0565b9150819050919050565b60006020820190506119fe60008301846117d9565b92915050565b6000602082019050611a1960008301846117e8565b92915050565b60006020820190508181036000830152611a3981846117f7565b905092915050565b60006080820190508181036000830152611a5b81876117f7565b90508181036020830152611a6f81866117f7565b9050611a7e60408301856117d9565b611a8b60608301846117e8565b95945050505050565b60006020820190508181036000830152611aad81611870565b9050919050565b60006020820190508181036000830152611acd816118f0565b9050919050565b60006020820190508181036000830152611aed81611930565b9050919050565b60006020820190508181036000830152611b0d81611970565b9050919050565b6000602082019050611b2960008301846119b0565b92915050565b6000608082019050611b4460008301876119b0565b8181036020830152611b5681866117f7565b90508181036040830152611b6a81856117f7565b9050611b7960608301846119b0565b95945050505050565b6000604051905081810181811067ffffffffffffffff82111715611ba957611ba8611e57565b5b8060405250919050565b600067ffffffffffffffff821115611bce57611bcd611e57565b5b601f19601f8301169050602081019050919050565b600081519050919050565b600082825260208201905092915050565b600081905092915050565b6000611c1582611d03565b9150611c2083611d03565b9250827fffffffffffffffffffffffffffffffffffffffffffffffffffffffffffffffff03821115611c5557611c54611dca565b5b828201905092915050565b6000611c6b82611d03565b9150611c7683611d03565b925082611c8657611c85611df9565b5b828204905092915050565b6000611c9c82611d03565b9150611ca783611d03565b925082821015611cba57611cb9611dca565b5b828203905092915050565b6000611cd082611ce3565b9050919050565b60008115159050919050565b600073ffffffffffffffffffffffffffffffffffffffff82169050919050565b6000819050919050565b82818337600083830152505050565b60005b83811015611d3a578082015181840152602081019050611d1f565b83811115611d49576000848401525b50505050565b60006002820490506001821680611d6757607f821691505b60208210811415611d7b57611d7a611e28565b5b50919050565b6000611d8c82611d03565b91507fffffffffffffffffffffffffffffffffffffffffffffffffffffffffffffffff821415611dbf57611dbe611dca565b5b600182019050919050565b7f4e487b7100000000000000000000000000000000000000000000000000000000600052601160045260246000fd5b7f4e487b7100000000000000000000000000000000000000000000000000000000600052601260045260246000fd5b7f4e487b7100000000000000000000000000000000000000000000000000000000600052602260045260246000fd5b7f4e487b7100000000000000000000000000000000000000000000000000000000600052604160045260246000fd5b6000601f19601f8301169050919050565b611ea081611cc5565b8114611eab57600080fd5b50565b611eb781611d03565b8114611ec257600080fd5b5056fea2646970667358221220d7fd41084c1e274ceec6a4a665b71cda04451b0fecfc4cd7aab2cbcfb3dcb39564736f6c63430008000033454950373132446f6d61696e28737472696e67206e616d652c737472696e672076657273696f6e2c75696e7432353620636861696e49642c6164647265737320766572696679696e67436f6e747261637429",
  "immutableReferences": {},
  "source": "pragma solidity >=0.6.0 <0.9.0;\r\n\r\n// SPDX-License-Identifier: MIT\r\n\r\ncontract VotingContract {\r\n    address owner;\r\n\r\n    uint256 candidateCount = 0;\r\n\r\n    uint256 voterCount = 0;\r\n\r\n    bool start;\r\n\r\n    string pollName;\r\n\r\n    // Counter for total votes\r\n    uint256 votesCasted = 0;\r\n\r\n    // Counter for rejects\r\n    uint256 rejectCount = 0;\r\n\r\n    // Counter for abstains\r\n    uint256 abstainCount = 0;\r\n\r\n    // rejected string\r\n    string rejected = \"Candidates rejected\";\r\n\r\n    //Struct\r\n    struct EIP712Domain {\r\n        string name;\r\n        string version;\r\n        uint256 chainId;\r\n        address verifyingContract;\r\n    }\r\n\r\n    struct MetaTransaction {\r\n        uint256 nonce;\r\n        address from;\r\n    }\r\n\r\n    mapping(address => uint256) public nonces;\r\n\r\n    bytes32 internal constant EIP712_DOMAIN_TYPEHASH =\r\n        keccak256(\r\n            bytes(\r\n                \"EIP712Domain(string name,string version,uint256 chainId,address verifyingContract)\"\r\n            )\r\n        );\r\n    bytes32 internal constant META_TRANSACTION_TYPEHASH =\r\n        keccak256(bytes(\"MetaTransaction(uint256 nonce,address from)\"));\r\n    bytes32 internal DOMAIN_SEPARATOR =\r\n        keccak256(\r\n            abi.encode(\r\n                EIP712_DOMAIN_TYPEHASH,\r\n                keccak256(bytes(\"Quote\")),\r\n                keccak256(bytes(\"1\")),\r\n                4, // Rinkeby\r\n                address(this)\r\n            )\r\n        );\r\n    // Struct of a voter\r\n    struct Voter {\r\n        string name;\r\n        string voterId; // Roll number or any other number\r\n        address voterAddress; // Wallet address\r\n        bool hasVoted;\r\n    }\r\n\r\n    mapping(address => Voter) public voterAddresses;\r\n\r\n    // Struct of a candidate\r\n    struct Candidate {\r\n        uint256 candidateId;\r\n        string name;\r\n        string details; // manifesto or any other description\r\n        uint256 voteCount; // the number of votes he got\r\n    }\r\n\r\n    mapping(uint256 => Candidate) public candidateDetails;\r\n\r\n    uint256[] private candidateVote;\r\n\r\n    // Modifier for letting only the owner to add candidates\r\n    modifier onlyOwner() {\r\n        require(msg.sender == owner, \"only Owner\");\r\n        _;\r\n    }\r\n\r\n    constructor() public {\r\n        owner = msg.sender;\r\n    }\r\n\r\n    // function to add a new candidate\r\n    function addCandidate(string memory _name, string memory _details)\r\n        public\r\n        onlyOwner\r\n    {\r\n        Candidate memory newCandidate = Candidate({\r\n            candidateId: candidateCount,\r\n            name: _name,\r\n            details: _details,\r\n            voteCount: 0\r\n        });\r\n\r\n        candidateDetails[candidateCount] = newCandidate;\r\n\r\n        candidateCount += 1;\r\n    }\r\n\r\n    // function to add voter\r\n    // only suitable for a local blockchain\r\n    function manualAddVoter(\r\n        string memory _name,\r\n        string memory _voterId,\r\n        address _voterAddress\r\n    ) public onlyOwner {\r\n        Voter memory newVoter = Voter({\r\n            name: _name,\r\n            voterId: _voterId,\r\n            voterAddress: _voterAddress,\r\n            hasVoted: false\r\n        });\r\n\r\n        voterAddresses[_voterAddress] = newVoter;\r\n\r\n        voterCount += 1;\r\n    }\r\n\r\n    // A voting 'event' for logging the vote of the voter\r\n    event Vote(uint256 indexed candidateId);\r\n\r\n    // the actual voting\r\n    // Take uint256 _candidateId as an array, where each index of the array would point to each post that is being put up\r\n    // This would mean that candidateId in itself has to be a two dimensional array (of some type)\r\n    // This way we can also build an array of some sort (obviously not manually) which will assign\r\n    // each voter to the number and specific posts for which he/she can vote.\r\n    // This will also create fluidity for the number of posts, i.e., we can have n number of posts\r\n    // (Haven't thought about gas price yet)\r\n    function vote(uint256 _candidateId) public {\r\n        require(\r\n            voterAddresses[msg.sender].voterAddress != address(0),\r\n            \"voter does not exist\"\r\n        );\r\n        require(\r\n            voterAddresses[msg.sender].hasVoted == false,\r\n            \"has already voted\"\r\n        );\r\n        require(start == true, \"not started\");\r\n        candidateDetails[_candidateId].voteCount += 1;\r\n        voterAddresses[msg.sender].hasVoted = true;\r\n        emit Vote(_candidateId);\r\n        votesCasted += 1;\r\n    }\r\n\r\n    // event for emitting abstain\r\n    event Abstain(string indexed abstain);\r\n\r\n    // event for emitting reject\r\n    event Reject(string indexed reject);\r\n\r\n    // function for abstain\r\n    function abstain() public {\r\n        require(\r\n            voterAddresses[msg.sender].voterAddress != address(0),\r\n            \"voter does not exist\"\r\n        );\r\n        require(\r\n            voterAddresses[msg.sender].hasVoted == false,\r\n            \"has already voted\"\r\n        );\r\n        require(start == true, \"not started\");\r\n        abstainCount += 1;\r\n        voterAddresses[msg.sender].hasVoted = true;\r\n        emit Abstain(\"Abstained\");\r\n        votesCasted += 1;\r\n    }\r\n\r\n    // function for reject\r\n    function reject() public {\r\n        require(\r\n            voterAddresses[msg.sender].voterAddress != address(0),\r\n            \"voter does not exist\"\r\n        );\r\n        require(\r\n            voterAddresses[msg.sender].hasVoted == false,\r\n            \"has already voted\"\r\n        );\r\n        require(start == true, \"not started\");\r\n        rejectCount += 1;\r\n        voterAddresses[msg.sender].hasVoted = true;\r\n        emit Reject(\"Rejected\");\r\n        votesCasted += 1;\r\n    }\r\n\r\n    //voting function for meta transaction\r\n    // function voteMeta(\r\n    //     uint256 _candidateId,\r\n    //     address userAddress,\r\n    //     bytes32 r,\r\n    //     bytes32 s,\r\n    //     uint8 v\r\n    // ) public {\r\n    //     MetaTransaction memory metaTx = MetaTransaction({\r\n    //         nonce: nonces[userAddress],\r\n    //         from: userAddress\r\n    //     });\r\n\r\n    //     bytes32 digest = keccak256(\r\n    //         abi.encodePacked(\r\n    //             \"\\x19\\x01\",\r\n    //             DOMAIN_SEPARATOR,\r\n    //             keccak256(\r\n    //                 abi.encode(\r\n    //                     META_TRANSACTION_TYPEHASH,\r\n    //                     metaTx.nonce,\r\n    //                     metaTx.from\r\n    //                 )\r\n    //             )\r\n    //         )\r\n    //     );\r\n\r\n    //     require(userAddress != address(0), \"invalid-address-0\");\r\n    //     require(\r\n    //         userAddress == ecrecover(digest, v, r, s),\r\n    //         \"invalid-signatures\"\r\n    //     );\r\n    //     require(voterAddresses[userAddress].hasVoted == false);\r\n    //     require(start == true);\r\n    //     candidateDetails[_candidateId].voteCount += 1;\r\n    //     voterAddresses[userAddress].hasVoted = true;\r\n    //     nonces[userAddress]++;\r\n    // }\r\n\r\n    // onlyOwner function for starting the election\r\n    function startElection() public onlyOwner {\r\n        start = true;\r\n    }\r\n\r\n    // onlyOwner function to end election\r\n    function endElection() public onlyOwner {\r\n        start = false;\r\n    }\r\n\r\n    // public function to view election status (use this in dashboard)\r\n    function electionStatus() public view returns (bool) {\r\n        return (start);\r\n    }\r\n\r\n    // event for emitting election results\r\n    // event Results(uint256 indexed candidateId);\r\n\r\n    // function to view election results\r\n    function electionResults() public returns (uint256) {\r\n        require(start == false);\r\n        uint256 winner = 0;\r\n        if (rejectCount > (votesCasted - abstainCount) / 2) {\r\n            winner = candidateCount + 1;\r\n        } else {\r\n            for (uint256 i = 0; i < candidateCount; i++) {\r\n                candidateVote.push(candidateDetails[i].voteCount);\r\n            }\r\n            for (uint256 i = 1; i < candidateCount; i++) {\r\n                if (candidateVote[i] > candidateVote[winner]) {\r\n                    winner = i;\r\n                }\r\n            }\r\n        }\r\n        return winner;\r\n        // emit Results(winner);\r\n    }\r\n\r\n    // event for emitting winner\r\n    // event Winner(string indexed winner);\r\n\r\n    function viewWinner() public returns (string memory) {\r\n        uint256 winner = electionResults();\r\n        if (winner == candidateCount + 1) {\r\n            return rejected;\r\n            // emit Winner(rejected);\r\n        } else {\r\n            return candidateDetails[winner].name;\r\n            // emit Winner(candidateDetails[winner].name);\r\n        }\r\n    }\r\n\r\n    // get total number of voters\r\n    function getVoterCount() public view returns (uint256) {\r\n        return voterCount;\r\n    }\r\n\r\n    function getOwner() public view returns (address) {\r\n        return owner;\r\n    }\r\n\r\n    function getCandidateCount() public view returns (uint256) {\r\n        return candidateCount;\r\n    }\r\n\r\n    function totalVotesCasted() public view  returns (uint256) {\r\n        return votesCasted;\r\n    }\r\n\r\n    function totalAbstain() public view returns (uint256) {\r\n        return abstainCount;\r\n    }\r\n\r\n    function totalReject() public view returns (uint256) {\r\n        return rejectCount;\r\n    }\r\n}\r\n",
  "sourcePath": "C:\\Users\\User\\Desktop\\blockchain-voting\\contracts\\VotingContract.sol",
  "compiler": {
    "name": "solc",
    "version": "0.8.0+commit.c7dfd78e.Emscripten.clang"
  },
  "schemaVersion": "3.4.6",
  "updatedAt": "2022-04-19T20:11:02.246Z",
  "networkType": "ethereum",
  "devdoc": {
    "kind": "dev",
    "methods": {},
    "version": 1
  },
  "userdoc": {
    "kind": "user",
    "methods": {},
    "version": 1
  }
}